:0400000096EF76F011
:10EC180046504710D8A413EF76F015EF76F017EFAB
:10EC280076F01DEF76F046C03DF047C03EF0E5ECCB
:10EC380079F0120046504710D8A425EF76F027EF58
:10EC480076F029EF76F02FEF76F046C03DF047C01A
:10EC58003EF0E5EC79F0120046504710D8A437EFA3
:10EC680076F039EF76F03BEF76F041EF76F046C07C
:10EC78003DF047C03EF0E5EC79F012003350350224
:10EC8800F3CF37F0F4CF38F033503602F35038264C
:10EC980034503502F350382637C033F038C034F0DA
:10ECA80012003D503E10D8A45CEF76F05EEF76F08F
:10ECB80060EF76F068EF76F03DC033F03EC034F098
:10ECC800000E356E40EC79F012003D503E10D8A48D
:10ECD80070EF76F072EF76F074EF76F07CEF76F006
:10ECE8003DC033F03EC034F0010E356E40EC79F093
:10ECF8001200800F810F820F830F840F890F8A0FF4
:10ED08008B0F8C0F8D0F920F930F940F950F960FFB
:10ED1800020A121A005100014900014100012B2387
:10ED28001B130B03FA0EF66EEC0EF76E000EF86E60
:10ED380000EE01F010EE32F00900F5CFEEFFE550DD
:10ED4800E150FAE100EE52F0160EEE6AE806FDE137
:10ED5800000EF86E0001B7EF7DF03D503E10D8B4BC
:10ED6800B8EF76F0BAEF76F0C3EF76F03F50401088
:10ED7800D8A4C1EF76F0C3EF76F0C5EF76F0F3EFE5
:10ED880076F020EE04F03D50D9263E50DA22DF50CE
:10ED9800D8A4D1EF76F0D3EF76F0DDEF76F03FC070
:10EDA80033F040C034F0000E356E40EC79F0F3EFEC
:10EDB80076F020EE04F03D50D9263E50DA22DE04EB
:10EDC800D8A4E9EF76F0EBEF76F0C3EF76F03FC02A
:10EDD80033F040C034F0010E356E40EC79F012008B
:10EDE8003D503E10D8B4FBEF76F0FDEF76F006EF1D
:10EDF80077F03F504010D8A404EF77F006EF77F093
:10EE080008EF77F036EF77F020EE04F03D50D92682
:10EE18003E50DA22DF50D8A414EF77F016EF77F0DF
:10EE280020EF77F03FC033F040C034F0010E356E6C
:10EE380040EC79F036EF77F020EE04F03D50D9261B
:10EE48003E50DA22DE04D8A42CEF77F02EEF77F0CC
:10EE580006EF77F03FC033F040C034F0000E356E57
:10EE680040EC79F012001F0E466E000E476E7CECE7
:10EE780077F0320E466E000E476E30EC76F0310EAB
:10EE8800466E000E476E30EC76F0300E466E000E81
:10EE9800476E30EC76F02F0E466E000E476E30EC63
:10EEA80076F02E0E466E000E476E30EC76F02D0E84
:10EEB800466E000E476E30EC76F02A0E466E000E57
:10EEC800476E0CEC76F0270E466E000E476E0CEC83
:10EED80076F0240E466E000E476E0CEC76F0670E48
:10EEE800466E000E476E1EEC76F06FEC7BF012005B
:10EEF80046504710D8A483EF77F085EF77F087EF77
:10EF080077F0C5EF77F046C03DF047C03EF0E5EC3E
:10EF180079F00009D8B493EF77F095EF77F085EFA3
:10EF280077F0010E46243D6E000E47203E6EE5EC5C
:10EF380079F00009D8B4A3EF77F0A5EF77F085EF63
:10EF480077F0020E46243D6E000E47203E6EE5EC3B
:10EF580079F00009D8B4B3EF77F0B5EF77F085EF23
:10EF680077F0030E46243D6E000E47203E6EE5EC1A
:10EF780079F00009D8B4C3EF77F0C5EF77F085EFE3
:10EF880077F01200000E386E34BECFEF77F0CDEF79
:10EF980077F0D5EF77F0336C341ED8B0342A010EF1
:10EFA800386E36BEDCEF77F0DAEF77F0E0EF77F027
:10EFB800356C361ED8B0362A35503610D8B4E7EF3F
:10EFC80077F0E9EF77F00DEF78F0010E376EF1EF9B
:10EFD80077F0D89035363636372A36AEF6EF77F0F2
:10EFE800F8EF77F0EDEF77F03550335C3650345862
:10EFF800D8A001EF78F003EF78F007EF78F03550FC
:10F00800335E3650345AD89036323532372EF8EFD0
:10F0180077F03850D8B413EF78F015EF78F019EF8F
:10F0280078F0336C341ED8B0342A33C033F034C08F
:10F0380034F0120033503410D8B425EF78F027EFAD
:10F0480078F047EF78F033C0D9FF34C0DAFFDF50EB
:10F05800070B376E050E376034EF78F036EF78F02F
:10F0680047EF78F033C0D9FF34C0DAFFDF30E83239
:10F07800E832070B376E070E376445EF78F047EF35
:10F0880078F049EF78F07AEF78F033C0D9FF34C0E0
:10F09800DAFFDF30E832E832070B376E33C0D9FFCA
:10F0A80034C0DAFFDF50070B386E3850020D010EFE
:10F0B800F324D96E000EF420DA6EDECF39F0DDCFFE
:10F0C8003AF039C0D9FF3AC0DAFFDF503B6E372A31
:10F0D80070EF78F0D8903B32372E6EEF78F03B50D7
:10F0E800010B35C0D9FF36C0DAFFDF6E1200000E03
:10F0F800386E36BE84EF78F082EF78F08AEF78F0D9
:10F10800356C361ED8B0362A010E386E34BE91EFF3
:10F1180078F08FEF78F097EF78F0336C341ED8B032
:10F12800342A010E381A000E3A6E000E396E355028
:10F138003610D8B4A2EF78F0A4EF78F0CCEF78F0DE
:10F14800010E376EACEF78F0D89035363636372A60
:10F1580036AEB1EF78F0B3EF78F0A8EF78F0D8904A
:10F1680039363A363550335C36503458D8A0BFEF6C
:10F1780078F0C1EF78F0C6EF78F03550335E36504E
:10F18800345A3980D89036323532372EB3EF78F08A
:10F198003850D8B4D2EF78F0D4EF78F0D8EF78F0D0
:10F1A800396C3A1ED8B03A2A39C033F03AC034F034
:10F1B80012003D503E10D8B4E4EF78F0E6EF78F056
:10F1C800EEEF78F0090E3F64ECEF78F0EEEF78F0B0
:10F1D800F0EF78F03FEF79F03DC033F03EC034F007
:10F1E8003F50010B356E40EC79F00009D8B4FFEFC1
:10F1F80078F001EF79F0EEEF78F0010E3D24336EF0
:10F20800000E3E20346ED8903F30010B356E40EC36
:10F2180079F00009D8B413EF79F015EF79F0EEEF33
:10F2280078F0020E3D24336E000E3E20346E3F40CF
:10F23800E8423F0B010B356E40EC79F00009D8B479
:10F2480028EF79F02AEF79F0EEEF78F0030E3D24FD
:10F25800336E000E3E20346E3F38E8461F0B010B1C
:10F26800356E40EC79F00009D8B43DEF79F03FEF06
:10F2780079F0EEEF78F01200010E3C6E3350341046
:10F28800D8B449EF79F04BEF79F06BEF79F033C0F0
:10F29800D9FF34C0DAFFDF50070B366E050E366033
:10F2A80058EF79F05AEF79F06BEF79F033C0D9FF66
:10F2B80034C0DAFFDF30E832E832070B366E070E6B
:10F2C800366469EF79F06BEF79F0CEEF79F0000EE4
:10F2D8003C6EE3EF79F033C0D9FF34C0DAFFDF309A
:10F2E800E832E832070B366E010E376E362A7FEFAA
:10F2F80079F0D8903736362E7DEF79F03750FF0AFF
:10F30800386E33C0D9FF34C0DAFFDF50070B396ECF
:10F318003950020D0B0EF324D96E000EF420DA6E6C
:10F32800DECF3AF0DDCF3BF03AC0D9FF3BC0DAFF81
:10F338003850DF16E3EF79F033C0D9FF34C0DAFF75
:10F34800DF30E832E832070B366E010E376E362AA8
:10F35800B0EF79F0D8903736362EAEEF79F033C06B
:10F36800D9FF34C0DAFFDF50070B386E3850020D72
:10F378000B0EF324D96E000EF420DA6EDECF39F0CE
:10F38800DDCF3AF039C0D9FF3AC0DAFF3750DF1283
:10F39800E3EF79F03550366E376A3750000AD8B443
:10F3A800D8EF79F06BEF79F03650000AD8B46FEFE8
:10F3B80079F0010AD8B4A0EF79F06BEF79F03C50FE
:10F3C8001200010E456E3D503E10D8B4EEEF79F0B4
:10F3D800F0EF79F010EF7AF03DC0D9FF3EC0DAFFC8
:10F3E800DF50070B3F6E050E3F60FDEF79F0FFEF32
:10F3F80079F010EF7AF03DC0D9FF3EC0DAFFDF3078
:10F40800E832E832070B3F6E070E3F640EEF7AF0E2
:10F4180010EF7AF082EF7AF0000E456EA3EF7AF0E3
:10F428003DC0D9FF3EC0DAFFDF30E832E832070BD3
:10F438003F6E010E406E3F2A24EF7AF0D890403696
:10F448003F2E22EF7AF04050FF0A416E3DC0D9FFAF
:10F458003EC0DAFFDF50070B426E4250020D150E18
:10F46800F324D96E000EF420DA6EDECF43F0DDCF40
:10F4780044F043C0D9FF44C0DAFF4150DF163DC015
:10F4880033F03EC034F03DC0D9FF3EC0DAFF000E75
:10F49800DFBE010E356E40EC79F0456EA3EF7AF0D1
:10F4A8003DC0D9FF3EC0DAFFDF30E832E832070B53
:10F4B8003F6E010E406E3F2A64EF7AF0D8904036D6
:10F4C8003F2E62EF7AF03DC0D9FF3EC0DAFFDF5031
:10F4D800070B416E4150020D150EF324D96E000E34
:10F4E800F420DA6EDECF42F0DDCF43F042C0D9FF20
:10F4F80043C0DAFF4050DF12A3EF7AF03DC0D9FFD6
:10F508003EC0DAFFDFBC8BEF7AF08EEF7AF0010EA7
:10F518008FEF7AF0000E3F6E406A4050000AD8B470
:10F5280098EF7AF010EF7AF03F50000AD8B414EF51
:10F538007AF0010AD8B454EF7AF010EF7AF0455017
:10F548001200000E416E3EC0D9FF3FC0DAFFDF6AED
:10F558003C503D10D8B4B3EF7AF0B5EF7AF0BEEF77
:10F568007AF03E503F10D8A4BCEF7AF0BEEF7AF0A4
:10F57800C0EF7AF06EEF7BF03CC033F03DC034F062
:10F58800410E356E000E366E1EEC78F020EE02F05D
:10F598003C50D9263D50DA22DE04D8A4D6EF7AF0C2
:10F5A800D8EF7AF01CEF7BF04104D8A4DEEF7AF0B4
:10F5B800E0EF7AF06EEF7BF00D0E406EFC0EE82E59
:10F5C800FED7402EFCD73CC033F03DC034F0410E8E
:10F5D800356E000E366E1EEC78F04104D8A4F7EFB5
:10F5E8007AF0F9EF7AF06EEF7BF03EC0D9FF3FC0BA
:10F5F800DAFF010EDF6E12EF7BF03CC033F03DC046
:10F6080034F0410E356E000E366E1EEC78F00D0E9D
:10F61800406EFC0EE82EFED7402EFCD74104D8B42D
:10F6280018EF7BF01AEF7BF001EF7BF06EEF7BF0C9
:10F6380020EE02F03C50D9263D50DA22DF50D8A403
:10F6480028EF7BF02AEF7BF06EEF7BF04150D8A4D7
:10F6580030EF7BF032EF7BF06EEF7BF00D0E406EFB
:10F66800FC0EE82EFED7402EFCD73CC033F03DC040
:10F6780034F0410E356E000E366E1EEC78F04150B7
:10F68800D8A449EF7BF04BEF7BF06EEF7BF03EC0E8
:10F69800D9FF3FC0DAFF010EDF6E64EF7BF03CC09C
:10F6A80033F03DC034F0410E356E000E366E1EEC60
:10F6B80078F00D0E406EFC0EE82EFED7402EFCD7DB
:10F6C8004150D8B46AEF7BF06CEF7BF053EF7BF0DE
:10F6D8006EEF7BF012005C90AFEF7DF0000E586E7D
:10F6E800000E646E16EF7CF01F0E3D6E000E3E6E2F
:10F6F8005650336E346A33BE3406000E366E0A0E28
:10F70800356EC6EC77F033503F6EDDEC78F01F0EA7
:10F718003D6E000E3E6E2D0E3F6E000E406EF4ECF8
:10F7280076F000F01F0E3D6E000E3E6E2D0E3F6E01
:10F73800000E406EB1EC76F000F01F0E3D6E000E2C
:10F748003E6E5650336E346A33BE3406000E366E43
:10F758000A0E356E7BEC78F033503F6EDDEC78F0B6
:10F768001F0E3D6E000E3E6E2E0E3F6E000E406E5A
:10F77800F4EC76F000F01F0E3D6E000E3E6E2E0E7D
:10F788003F6E000E406EB1EC76F000F0240E3C6E39
:10F79800000E3D6E640E3E6E000E3F6EA5EC7AF0D4
:10F7A8002A0E3C6E000E3D6E660E3E6E000E3F6EDB
:10F7B800A5EC7AF0270E3C6E000E3D6E650E3E6E8F
:10F7C800000E3F6EA5EC7AF06604D8A4EEEF7BF04D
:10F7D800F0EF7BF0FFEF7BF0562A5650800A450F7A
:10F7E800D8A0F9EF7BF0FBEF7BF0FDEF7BF0000E8C
:10F7F800566E000E666E6504D8A405EF7CF007EF20
:10F808007CF016EF7CF056065650800A7F0FD8B071
:10F8180010EF7CF012EF7CF014EF7CF0000E566EC7
:10F82800000E656E5850D8A41CEF7CF01EEF7CF0DB
:10F8380026EF7CF06450D8B424EF7CF026EF7CF0FF
:10F8480078EF7BF0000E646E56C058F0000E566ECE
:10F85800D8EF7CF01F0E3D6E000E3E6E5650336E94
:10F86800346A33BE3406000E366E0A0E356EC6ECA8
:10F8780077F033503F6EDDEC78F01F0E3D6E000ED2
:10F888003E6E2F0E3F6E000E406EF4EC76F0C80E02
:10F8980000D0E82EFDD71F0E3D6E000E3E6E2F0ED7
:10F8A8003F6E000E406EB1EC76F0C80E00D0E82E28
:10F8B800FDD71F0E3D6E000E3E6E5650336E346AF5
:10F8C80033BE3406000E366E0A0E356E7BEC78F0C9
:10F8D80033503F6EDDEC78F01F0E3D6E000E3E6E2D
:10F8E800300E3F6E000E406EF4EC76F0C80E00D07D
:10F8F800E82EFDD71F0E3D6E000E3E6E300E3F6E99
:10F90800000E406EB1EC76F0C80E00D0E82EFDD7A0
:10F91800240E3C6E000E3D6E640E3E6E000E3F6E71
:10F92800A5EC7AF02A0E3C6E000E3D6E660E3E6E19
:10F93800000E3F6EA5EC7AF0270E3C6E000E3D6E71
:10F94800650E3E6E000E3F6EA5EC7AF06604D8A4F4
:10F95800B0EF7CF0B2EF7CF0C1EF7CF0562A565045
:10F96800800A450FD8A0BBEF7CF0BDEF7CF0BFEF5D
:10F978007CF0000E566E000E666E6504D8A4C7EFC4
:10F988007CF0C9EF7CF0D8EF7CF056065650800A20
:10F998007F0FD8B0D2EF7CF0D4EF7CF0D6EF7CF0BC
:10F9A800000E566E000E656E5950D8A4DEEF7CF03E
:10F9B800E0EF7CF0E8EF7CF06450D8B4E6EF7CF040
:10F9C800E8EF7CF02EEF7CF0000E646E56C059F024
:10F9D800000E566E9AEF7DF01F0E3D6E000E3E6EC5
:10F9E8005650336E346A33BE3406000E366E0A0E35
:10F9F800356EC6EC77F033503F6EDDEC78F01F0EB5
:10FA08003D6E000E3E6E310E3F6E000E406EF4EC01
:10FA180076F0C80E00D0E82EFDD71F0E3D6E000E02
:10FA28003E6E310E3F6E000E406EB1EC76F0C80EA1
:10FA380000D0E82EFDD71F0E3D6E000E3E6E5650CC
:10FA4800336E346A33BE3406000E366E0A0E356ED7
:10FA58007BEC78F033503F6EDDEC78F01F0E3D6E96
:10FA6800000E3E6E320E3F6E000E406EF4EC76F0E5
:10FA7800C80E00D0E82EFDD71F0E3D6E000E3E6E5C
:10FA8800320E3F6E000E406EB1EC76F0C80E00D01C
:10FA9800E82EFDD7240E3C6E000E3D6E640E3E6EC1
:10FAA800000E3F6EA5EC7AF02A0E3C6E000E3D6EFD
:10FAB800660E3E6E000E3F6EA5EC7AF0270E3C6E89
:10FAC800000E3D6E650E3E6E000E3F6EA5EC7AF0A0
:10FAD8006604D8A472EF7DF074EF7DF083EF7DF0BB
:10FAE800562A5650800A690FD8A07DEF7DF07FEF27
:10FAF8007DF081EF7DF0000E566E000E666E650497
:10FB0800D8A489EF7DF08BEF7DF09AEF7DF0560653
:10FB18005650800A7F0FD8B094EF7DF096EF7DF0B5
:10FB280098EF7DF0000E566E000E656E5A50D8A400
:10FB3800A0EF7DF0A2EF7DF0AAEF7DF06450D8B47D
:10FB4800A8EF7DF0AAEF7DF0F0EF7CF0000E646E78
:10FB580056C05AF05C805CA0B4EF7DF0B6EF7DF043
:10FB680072EF7BF0120037EC77F058C048F0496A22
:10FB780048BE49065A50336E346A33BE34060E0EF8
:10FB8800366E100E356E42EC76F033C04AF034C053
:10FB98004BF05950336E346A33BE3406000E366E5D
:10FBA8003C0E356E42EC76F033504A244C6E34509D
:10FBB8004B204D6E48504C244E6E49504D204F6E90
:10FBC8004EC052F04FC053F0000E53BEFF0E546E9D
:10FBD800556E5250531054105510D8A4F6EF7DF0BE
:10FBE800F8EF7DF078EF7EF05CA0FDEF7DF0FFEFA1
:10FBF8007DF078EF7EF0240E3C6E000E3D6E640EB4
:10FC08003E6E000E3F6EA5EC7AF02A0E3C6E000E9A
:10FC18003D6E660E3E6E000E3F6EA5EC7AF0670EE6
:10FC28003D6E000E3E6E69EC76F06604D8A41FEFB8
:10FC38007EF021EF7EF028EF7EF05C90670E3D6E3F
:10FC4800000E3E6E55EC76F06404D8A42EEF7EF0DC
:10FC580030EF7EF0EDEF7DF0670E3D6E000E3E6EEC
:10FC680055EC76F0070E486E7D0EE82EFED7482E2E
:10FC7800FCD700F06FEC7BF058C048F0496A48BEEA
:10FC880049065A50336E346A33BE34060E0E366E49
:10FC9800100E356E42EC76F033C04AF034C04BF0AB
:10FCA8005950336E346A33BE3406000E366E3C0E3D
:10FCB800356E42EC76F033504A244C6E34504B206B
:10FCC8004D6E48504C244E6E49504D204F6E4EC0DC
:10FCD80052F04FC053F0000E53BEFF0E546E556ED7
:10FCE800000E646EEDEF7DF0525053105410551015
:10FCF800D8B481EF7EF083EF7EF0FCEF7FF0520600
:10FD0800000E535A545A555A000E576E1F0E3D6E28
:10FD1800000E3E6E5850336E346A33BE3406000E01
:10FD2800366E0A0E356EC6EC77F033503F6EDDEC5A
:10FD380078F01F0E3D6E000E3E6E2D0E3F6E000ECB
:10FD4800406EF4EC76F0210EE82EFED700F01F0E80
:10FD58003D6E000E3E6E2D0E3F6E000E406EB1ECF5
:10FD680076F0210EE82EFED700F01F0E3D6E000E35
:10FD78003E6E5850336E346A33BE3406000E366E0B
:10FD88000A0E356E7BEC78F033503F6EDDEC78F080
:10FD98001F0E3D6E000E3E6E2E0E3F6E000E406E24
:10FDA800F4EC76F0210EE82EFED700F01F0E3D6E23
:10FDB800000E3E6E2E0E3F6E000E406EB1EC76F0D9
:10FDC800210EE82EFED700F01F0E3D6E000E3E6E8F
:10FDD8005950336E346A33BE3406000E366E0A0E3E
:10FDE800356EC6EC77F033503F6EDDEC78F01F0EC1
:10FDF8003D6E000E3E6E2F0E3F6E000E406EF4EC10
:10FE080076F0210EE82EFED700F01F0E3D6E000E94
:10FE18003E6E2F0E3F6E000E406EB1EC76F0210E56
:10FE2800E82EFED700F01F0E3D6E000E3E6E5950B4
:10FE3800336E346A33BE3406000E366E0A0E356EE3
:10FE48007BEC78F033503F6EDDEC78F01F0E3D6EA2
:10FE5800000E3E6E300E3F6E000E406EF4EC76F0F3
:10FE6800210EE82EFED700F01F0E3D6E000E3E6EEE
:10FE7800300E3F6E000E406EB1EC76F0210EE82E8B
:10FE8800FED700F01F0E3D6E000E3E6E5A50336EC8
:10FE9800346A33BE3406000E366E0A0E356EC6EC72
:10FEA80077F033503F6EDDEC78F01F0E3D6E000E9C
:10FEB8003E6E310E3F6E000E406EF4EC76F0210E71
:10FEC800E82EFED700F01F0E3D6E000E3E6E310E7E
:10FED8003F6E000E406EB1EC76F0210EE82EFED794
:10FEE80000F01F0E3D6E000E3E6E5A50336E346A9F
:10FEF80033BE3406000E366E0A0E356E7BEC78F093
:10FF080033503F6EDDEC78F01F0E3D6E000E3E6EF6
:10FF1800320E3F6E000E406EF4EC76F0210EE82EA5
:10FF2800FED700F01F0E3D6E000E3E6E320E3F6E85
:10FF3800000E406EB1EC76F0210EE82EFED700F0F0
:10FF4800572A5750800A4D0FD8A0ADEF7FF0AFEF7A
:10FF58007FF08AEF7EF058065850800A7F0FD8B09D
:10FF6800B8EF7FF0BAEF7FF0EDEF7DF05950D8A4ED
:10FF7800C0EF7FF0C2EF7FF0D6EF7FF05A50D8A4E1
:10FF8800C8EF7FF0CAEF7FF0D6EF7FF0000E586E13
:10FF9800000E526E000E536E000E546E000E556E1B
:10FFA800D8EF7FF03B0E586E590659BEE0EF7FF050
:10FFB800DEEF7FF0EDEF7DF0000E596E5A50800AAB
:10FFC8007F0FD8A0EAEF7FF0ECEF7FF0F4EF7FF03F
:10FFD8005A50506E516A50BE51065A06F8EF7FF0DB
:10FFE800000E516E000E506E50C05AF0EDEF7DF0CD
:08FFF800EDEF7DF000EF00F0D9
:020000040030CA
:0E000000FF02091EFF8181FF0FC00FE00F40BD
:00000001FF
